{
  "contractName": "Soulcapper",
  "abi": [
    {
      "constant": true,
      "inputs": [
        {
          "name": "interfaceId",
          "type": "bytes4"
        }
      ],
      "name": "supportsInterface",
      "outputs": [
        {
          "name": "",
          "type": "bool"
        }
      ],
      "payable": false,
      "stateMutability": "view",
      "type": "function"
    },
    {
      "constant": true,
      "inputs": [
        {
          "name": "tokenId",
          "type": "uint256"
        }
      ],
      "name": "getApproved",
      "outputs": [
        {
          "name": "",
          "type": "address"
        }
      ],
      "payable": false,
      "stateMutability": "view",
      "type": "function"
    },
    {
      "constant": false,
      "inputs": [
        {
          "name": "to",
          "type": "address"
        },
        {
          "name": "tokenId",
          "type": "uint256"
        }
      ],
      "name": "approve",
      "outputs": [],
      "payable": false,
      "stateMutability": "nonpayable",
      "type": "function"
    },
    {
      "constant": false,
      "inputs": [
        {
          "name": "from",
          "type": "address"
        },
        {
          "name": "to",
          "type": "address"
        },
        {
          "name": "tokenId",
          "type": "uint256"
        }
      ],
      "name": "transferFrom",
      "outputs": [],
      "payable": false,
      "stateMutability": "nonpayable",
      "type": "function"
    },
    {
      "constant": true,
      "inputs": [
        {
          "name": "",
          "type": "address"
        }
      ],
      "name": "captures_tracker",
      "outputs": [
        {
          "name": "",
          "type": "uint256"
        }
      ],
      "payable": false,
      "stateMutability": "view",
      "type": "function"
    },
    {
      "constant": false,
      "inputs": [
        {
          "name": "from",
          "type": "address"
        },
        {
          "name": "to",
          "type": "address"
        },
        {
          "name": "tokenId",
          "type": "uint256"
        }
      ],
      "name": "safeTransferFrom",
      "outputs": [],
      "payable": false,
      "stateMutability": "nonpayable",
      "type": "function"
    },
    {
      "constant": true,
      "inputs": [
        {
          "name": "tokenId",
          "type": "uint256"
        }
      ],
      "name": "ownerOf",
      "outputs": [
        {
          "name": "",
          "type": "address"
        }
      ],
      "payable": false,
      "stateMutability": "view",
      "type": "function"
    },
    {
      "constant": true,
      "inputs": [
        {
          "name": "owner",
          "type": "address"
        }
      ],
      "name": "balanceOf",
      "outputs": [
        {
          "name": "",
          "type": "uint256"
        }
      ],
      "payable": false,
      "stateMutability": "view",
      "type": "function"
    },
    {
      "constant": true,
      "inputs": [
        {
          "name": "",
          "type": "uint256"
        }
      ],
      "name": "souls",
      "outputs": [
        {
          "name": "body",
          "type": "address"
        },
        {
          "name": "name",
          "type": "string"
        },
        {
          "name": "uri",
          "type": "string"
        },
        {
          "name": "soul_type",
          "type": "uint64"
        }
      ],
      "payable": false,
      "stateMutability": "view",
      "type": "function"
    },
    {
      "constant": false,
      "inputs": [
        {
          "name": "to",
          "type": "address"
        },
        {
          "name": "approved",
          "type": "bool"
        }
      ],
      "name": "setApprovalForAll",
      "outputs": [],
      "payable": false,
      "stateMutability": "nonpayable",
      "type": "function"
    },
    {
      "constant": false,
      "inputs": [
        {
          "name": "from",
          "type": "address"
        },
        {
          "name": "to",
          "type": "address"
        },
        {
          "name": "tokenId",
          "type": "uint256"
        },
        {
          "name": "_data",
          "type": "bytes"
        }
      ],
      "name": "safeTransferFrom",
      "outputs": [],
      "payable": false,
      "stateMutability": "nonpayable",
      "type": "function"
    },
    {
      "constant": true,
      "inputs": [
        {
          "name": "owner",
          "type": "address"
        },
        {
          "name": "operator",
          "type": "address"
        }
      ],
      "name": "isApprovedForAll",
      "outputs": [
        {
          "name": "",
          "type": "bool"
        }
      ],
      "payable": false,
      "stateMutability": "view",
      "type": "function"
    },
    {
      "inputs": [],
      "payable": false,
      "stateMutability": "nonpayable",
      "type": "constructor"
    },
    {
      "anonymous": false,
      "inputs": [
        {
          "indexed": true,
          "name": "_from",
          "type": "address"
        },
        {
          "indexed": false,
          "name": "_name",
          "type": "string"
        },
        {
          "indexed": true,
          "name": "_id",
          "type": "uint256"
        },
        {
          "indexed": false,
          "name": "_value",
          "type": "uint256"
        }
      ],
      "name": "Capped",
      "type": "event"
    },
    {
      "anonymous": false,
      "inputs": [
        {
          "indexed": true,
          "name": "from",
          "type": "address"
        },
        {
          "indexed": true,
          "name": "to",
          "type": "address"
        },
        {
          "indexed": true,
          "name": "tokenId",
          "type": "uint256"
        }
      ],
      "name": "Transfer",
      "type": "event"
    },
    {
      "anonymous": false,
      "inputs": [
        {
          "indexed": true,
          "name": "owner",
          "type": "address"
        },
        {
          "indexed": true,
          "name": "approved",
          "type": "address"
        },
        {
          "indexed": true,
          "name": "tokenId",
          "type": "uint256"
        }
      ],
      "name": "Approval",
      "type": "event"
    },
    {
      "anonymous": false,
      "inputs": [
        {
          "indexed": true,
          "name": "owner",
          "type": "address"
        },
        {
          "indexed": true,
          "name": "operator",
          "type": "address"
        },
        {
          "indexed": false,
          "name": "approved",
          "type": "bool"
        }
      ],
      "name": "ApprovalForAll",
      "type": "event"
    },
    {
      "constant": true,
      "inputs": [
        {
          "name": "user",
          "type": "address"
        }
      ],
      "name": "hasZRX",
      "outputs": [
        {
          "name": "",
          "type": "bool"
        }
      ],
      "payable": false,
      "stateMutability": "view",
      "type": "function"
    },
    {
      "constant": false,
      "inputs": [
        {
          "name": "_to",
          "type": "address"
        },
        {
          "name": "_name",
          "type": "string"
        },
        {
          "name": "_URI",
          "type": "string"
        },
        {
          "name": "_type",
          "type": "uint64"
        }
      ],
      "name": "captureSoul",
      "outputs": [],
      "payable": true,
      "stateMutability": "payable",
      "type": "function"
    },
    {
      "constant": false,
      "inputs": [
        {
          "name": "_id",
          "type": "uint256"
        },
        {
          "name": "_name",
          "type": "string"
        }
      ],
      "name": "setName",
      "outputs": [],
      "payable": false,
      "stateMutability": "nonpayable",
      "type": "function"
    },
    {
      "constant": false,
      "inputs": [
        {
          "name": "_itemId",
          "type": "uint256"
        },
        {
          "name": "_to",
          "type": "address"
        }
      ],
      "name": "tradeSoul",
      "outputs": [],
      "payable": true,
      "stateMutability": "payable",
      "type": "function"
    },
    {
      "constant": false,
      "inputs": [
        {
          "name": "_payto",
          "type": "address"
        }
      ],
      "name": "cashout",
      "outputs": [],
      "payable": false,
      "stateMutability": "nonpayable",
      "type": "function"
    },
    {
      "constant": false,
      "inputs": [
        {
          "name": "erc20_contracts",
          "type": "address[]"
        }
      ],
      "name": "withdraw",
      "outputs": [],
      "payable": false,
      "stateMutability": "nonpayable",
      "type": "function"
    },
    {
      "constant": false,
      "inputs": [
        {
          "name": "_transfer_percent_fee",
          "type": "uint256"
        },
        {
          "name": "_minting_fee_wei",
          "type": "uint256"
        },
        {
          "name": "_ZRX_erc20_contrct",
          "type": "address"
        },
        {
          "name": "_ZRX_discount_percent",
          "type": "uint16"
        },
        {
          "name": "_max_souls_per_body",
          "type": "uint256"
        }
      ],
      "name": "setEverything",
      "outputs": [],
      "payable": false,
      "stateMutability": "nonpayable",
      "type": "function"
    }
  ],
  "bytecode": "0x608060405260016008553480156200001657600080fd5b50620000546301ffc9a77c01000000000000000000000000000000000000000000000000000000000262000169640100000000026401000000009004565b620000916380ac58cd7c01000000000000000000000000000000000000000000000000000000000262000169640100000000026401000000009004565b33600760006101000a81548173ffffffffffffffffffffffffffffffffffffffff021916908373ffffffffffffffffffffffffffffffffffffffff16021790555060006005819055506611c37937e080006006819055506003600a819055506032600960146101000a81548161ffff021916908361ffff1602179055507361175b02c97c13185ad10de68498b9874a7ce4a1600960006101000a81548173ffffffffffffffffffffffffffffffffffffffff021916908373ffffffffffffffffffffffffffffffffffffffff16021790555062000227565b63ffffffff7c010000000000000000000000000000000000000000000000000000000002817bffffffffffffffffffffffffffffffffffffffffffffffffffffffff191614151515620001bb57600080fd5b6001600080837bffffffffffffffffffffffffffffffffffffffffffffffffffffffff19167bffffffffffffffffffffffffffffffffffffffffffffffffffffffff1916815260200190815260200160002060006101000a81548160ff02191690831515021790555050565b6125cd80620002376000396000f3fe608060405260043610610107576000357c0100000000000000000000000000000000000000000000000000000000900463ffffffff16806301ffc9a71461010c578063081812fc1461017e578063095ea7b3146101f9578063115fa4161461025457806323b872dd146102d15780633614822e1461034c57806342842e0e146103b15780634846ff7e1461042c5780636352211e1461047d5780636cc0370f146104f857806370a082311461054657806376b53c6a146105ab5780637f0df68414610614578063a22cb46514610782578063b4497861146107df578063b88d4fde14610965578063bd5dec9814610a77578063e985e9c514610b3c578063fe55932a14610bc5575b600080fd5b34801561011857600080fd5b506101646004803603602081101561012f57600080fd5b8101908080357bffffffffffffffffffffffffffffffffffffffffffffffffffffffff19169060200190929190505050610c97565b604051808215151515815260200191505060405180910390f35b34801561018a57600080fd5b506101b7600480360360208110156101a157600080fd5b8101908080359060200190929190505050610cfe565b604051808273ffffffffffffffffffffffffffffffffffffffff1673ffffffffffffffffffffffffffffffffffffffff16815260200191505060405180910390f35b34801561020557600080fd5b506102526004803603604081101561021c57600080fd5b81019080803573ffffffffffffffffffffffffffffffffffffffff16906020019092919080359060200190929190505050610d4f565b005b34801561026057600080fd5b506102cf600480360360a081101561027757600080fd5b810190808035906020019092919080359060200190929190803573ffffffffffffffffffffffffffffffffffffffff169060200190929190803561ffff16906020019092919080359060200190929190505050610e94565b005b3480156102dd57600080fd5b5061034a600480360360608110156102f457600080fd5b81019080803573ffffffffffffffffffffffffffffffffffffffff169060200190929190803573ffffffffffffffffffffffffffffffffffffffff16906020019092919080359060200190929190505050610f6a565b005b34801561035857600080fd5b5061039b6004803603602081101561036f57600080fd5b81019080803573ffffffffffffffffffffffffffffffffffffffff169060200190929190505050610f8f565b6040518082815260200191505060405180910390f35b3480156103bd57600080fd5b5061042a600480360360608110156103d457600080fd5b81019080803573ffffffffffffffffffffffffffffffffffffffff169060200190929190803573ffffffffffffffffffffffffffffffffffffffff16906020019092919080359060200190929190505050610fa7565b005b34801561043857600080fd5b5061047b6004803603602081101561044f57600080fd5b81019080803573ffffffffffffffffffffffffffffffffffffffff169060200190929190505050610fc8565b005b34801561048957600080fd5b506104b6600480360360208110156104a057600080fd5b8101908080359060200190929190505050611085565b604051808273ffffffffffffffffffffffffffffffffffffffff1673ffffffffffffffffffffffffffffffffffffffff16815260200191505060405180910390f35b6105446004803603604081101561050e57600080fd5b8101908080359060200190929190803573ffffffffffffffffffffffffffffffffffffffff169060200190929190505050611103565b005b34801561055257600080fd5b506105956004803603602081101561056957600080fd5b81019080803573ffffffffffffffffffffffffffffffffffffffff169060200190929190505050611123565b6040518082815260200191505060405180910390f35b3480156105b757600080fd5b506105fa600480360360208110156105ce57600080fd5b81019080803573ffffffffffffffffffffffffffffffffffffffff1690602001909291905050506111a7565b604051808215151515815260200191505060405180910390f35b34801561062057600080fd5b5061064d6004803603602081101561063757600080fd5b81019080803590602001909291905050506112c0565b604051808573ffffffffffffffffffffffffffffffffffffffff1673ffffffffffffffffffffffffffffffffffffffff16815260200180602001806020018467ffffffffffffffff1667ffffffffffffffff168152602001838103835286818151815260200191508051906020019080838360005b838110156106dd5780820151818401526020810190506106c2565b50505050905090810190601f16801561070a5780820380516001836020036101000a031916815260200191505b50838103825285818151815260200191508051906020019080838360005b83811015610743578082015181840152602081019050610728565b50505050905090810190601f1680156107705780820380516001836020036101000a031916815260200191505b50965050505050505060405180910390f35b34801561078e57600080fd5b506107dd600480360360408110156107a557600080fd5b81019080803573ffffffffffffffffffffffffffffffffffffffff169060200190929190803515159060200190929190505050611454565b005b610963600480360360808110156107f557600080fd5b81019080803573ffffffffffffffffffffffffffffffffffffffff1690602001909291908035906020019064010000000081111561083257600080fd5b82018360208201111561084457600080fd5b8035906020019184600183028401116401000000008311171561086657600080fd5b91908080601f016020809104026020016040519081016040528093929190818152602001838380828437600081840152601f19601f820116905080830192505050505050509192919290803590602001906401000000008111156108c957600080fd5b8201836020820111156108db57600080fd5b803590602001918460018302840111640100000000831117156108fd57600080fd5b91908080601f016020809104026020016040519081016040528093929190818152602001838380828437600081840152601f19601f820116905080830192505050505050509192919290803567ffffffffffffffff169060200190929190505050611590565b005b34801561097157600080fd5b50610a756004803603608081101561098857600080fd5b81019080803573ffffffffffffffffffffffffffffffffffffffff169060200190929190803573ffffffffffffffffffffffffffffffffffffffff16906020019092919080359060200190929190803590602001906401000000008111156109ef57600080fd5b820183602082011115610a0157600080fd5b80359060200191846001830284011164010000000083111715610a2357600080fd5b91908080601f016020809104026020016040519081016040528093929190818152602001838380828437600081840152601f19601f820116905080830192505050505050509192919290505050611873565b005b348015610a8357600080fd5b50610b3a60048036036020811015610a9a57600080fd5b8101908080359060200190640100000000811115610ab757600080fd5b820183602082011115610ac957600080fd5b80359060200191846020830284011164010000000083111715610aeb57600080fd5b919080806020026020016040519081016040528093929190818152602001838360200280828437600081840152601f19601f82011690508083019250505050505050919291929050505061189b565b005b348015610b4857600080fd5b50610bab60048036036040811015610b5f57600080fd5b81019080803573ffffffffffffffffffffffffffffffffffffffff169060200190929190803573ffffffffffffffffffffffffffffffffffffffff169060200190929190505050611af0565b604051808215151515815260200191505060405180910390f35b348015610bd157600080fd5b50610c9560048036036040811015610be857600080fd5b810190808035906020019092919080359060200190640100000000811115610c0f57600080fd5b820183602082011115610c2157600080fd5b80359060200191846001830284011164010000000083111715610c4357600080fd5b91908080601f016020809104026020016040519081016040528093929190818152602001838380828437600081840152601f19601f820116905080830192505050505050509192919290505050611b84565b005b6000806000837bffffffffffffffffffffffffffffffffffffffffffffffffffffffff19167bffffffffffffffffffffffffffffffffffffffffffffffffffffffff1916815260200190815260200160002060009054906101000a900460ff169050919050565b6000610d0982611bf5565b1515610d1457600080fd5b6002600083815260200190815260200160002060009054906101000a900473ffffffffffffffffffffffffffffffffffffffff169050919050565b6000610d5a82611085565b90508073ffffffffffffffffffffffffffffffffffffffff168373ffffffffffffffffffffffffffffffffffffffff1614151515610d9757600080fd5b8073ffffffffffffffffffffffffffffffffffffffff163373ffffffffffffffffffffffffffffffffffffffff161480610dd75750610dd68133611af0565b5b1515610de257600080fd5b826002600084815260200190815260200160002060006101000a81548173ffffffffffffffffffffffffffffffffffffffff021916908373ffffffffffffffffffffffffffffffffffffffff160217905550818373ffffffffffffffffffffffffffffffffffffffff168273ffffffffffffffffffffffffffffffffffffffff167f8c5be1e5ebec7d5bd14f71427d1e84f3dd0314c0f7b2291e5b200ac8c7c3b92560405160405180910390a4505050565b600760009054906101000a900473ffffffffffffffffffffffffffffffffffffffff1673ffffffffffffffffffffffffffffffffffffffff163373ffffffffffffffffffffffffffffffffffffffff16141515610ef057600080fd5b846005819055508360068190555082600960006101000a81548173ffffffffffffffffffffffffffffffffffffffff021916908373ffffffffffffffffffffffffffffffffffffffff16021790555081600960146101000a81548161ffff021916908361ffff16021790555080600a819055505050505050565b610f743382611c67565b1515610f7f57600080fd5b610f8a838383611cfc565b505050565b600c6020528060005260406000206000915090505481565b610fc38383836020604051908101604052806000815250611873565b505050565b600760009054906101000a900473ffffffffffffffffffffffffffffffffffffffff1673ffffffffffffffffffffffffffffffffffffffff163373ffffffffffffffffffffffffffffffffffffffff1614151561102457600080fd5b8073ffffffffffffffffffffffffffffffffffffffff166108fc3073ffffffffffffffffffffffffffffffffffffffff16319081150290604051600060405180830381858888f19350505050158015611081573d6000803e3d6000fd5b5050565b6000806001600084815260200190815260200160002060009054906101000a900473ffffffffffffffffffffffffffffffffffffffff169050600073ffffffffffffffffffffffffffffffffffffffff168173ffffffffffffffffffffffffffffffffffffffff16141515156110fa57600080fd5b80915050919050565b61111f3382846020604051908101604052806000815250611873565b5050565b60008073ffffffffffffffffffffffffffffffffffffffff168273ffffffffffffffffffffffffffffffffffffffff161415151561116057600080fd5b600360008373ffffffffffffffffffffffffffffffffffffffff1673ffffffffffffffffffffffffffffffffffffffff168152602001908152602001600020549050919050565b600080600960009054906101000a900473ffffffffffffffffffffffffffffffffffffffff16905060008173ffffffffffffffffffffffffffffffffffffffff166370a08231856040518263ffffffff167c0100000000000000000000000000000000000000000000000000000000028152600401808273ffffffffffffffffffffffffffffffffffffffff1673ffffffffffffffffffffffffffffffffffffffff16815260200191505060206040518083038186803b15801561126a57600080fd5b505afa15801561127e573d6000803e3d6000fd5b505050506040513d602081101561129457600080fd5b810190808051906020019092919050505011156112b55760019150506112bb565b60009150505b919050565b600b6020528060005260406000206000915090508060000160009054906101000a900473ffffffffffffffffffffffffffffffffffffffff1690806001018054600181600116156101000203166002900480601f0160208091040260200160405190810160405280929190818152602001828054600181600116156101000203166002900480156113925780601f1061136757610100808354040283529160200191611392565b820191906000526020600020905b81548152906001019060200180831161137557829003601f168201915b505050505090806002018054600181600116156101000203166002900480601f0160208091040260200160405190810160405280929190818152602001828054600181600116156101000203166002900480156114305780601f1061140557610100808354040283529160200191611430565b820191906000526020600020905b81548152906001019060200180831161141357829003601f168201915b5050505050908060030160009054906101000a900467ffffffffffffffff16905084565b3373ffffffffffffffffffffffffffffffffffffffff168273ffffffffffffffffffffffffffffffffffffffff161415151561148f57600080fd5b80600460003373ffffffffffffffffffffffffffffffffffffffff1673ffffffffffffffffffffffffffffffffffffffff16815260200190815260200160002060008473ffffffffffffffffffffffffffffffffffffffff1673ffffffffffffffffffffffffffffffffffffffff16815260200190815260200160002060006101000a81548160ff0219169083151502179055508173ffffffffffffffffffffffffffffffffffffffff163373ffffffffffffffffffffffffffffffffffffffff167f17307eab39ab6107e8899845ad3d59bd9653f200f220920489ca2b5937696c3183604051808215151515815260200191505060405180910390a35050565b600060065490506115a0336111a7565b156115cd576064600960149054906101000a900461ffff1661ffff1682028115156115c757fe5b04810390505b8034101515156115dc57600080fd5b600a54600c60003373ffffffffffffffffffffffffffffffffffffffff1673ffffffffffffffffffffffffffffffffffffffff1681526020019081526020016000205410151561162b57600080fd5b61163785600854611f61565b61163f612433565b6080604051908101604052803373ffffffffffffffffffffffffffffffffffffffff1681526020018681526020018581526020018467ffffffffffffffff16815250905080600b6000600854815260200190815260200160002060008201518160000160006101000a81548173ffffffffffffffffffffffffffffffffffffffff021916908373ffffffffffffffffffffffffffffffffffffffff16021790555060208201518160010190805190602001906116fc92919061247c565b50604082015181600201908051906020019061171992919061247c565b5060608201518160030160006101000a81548167ffffffffffffffff021916908367ffffffffffffffff1602179055509050506008543373ffffffffffffffffffffffffffffffffffffffff167f03cd525fd25780861d924a89ee17ab1fc3eef04f45728531b6a41e1e5973ee6287346040518080602001838152602001828103825284818151815260200191508051906020019080838360005b838110156117cf5780820151818401526020810190506117b4565b50505050905090810190601f1680156117fc5780820380516001836020036101000a031916815260200191505b50935050505060405180910390a3600860008154809291906001019190505550600c60003373ffffffffffffffffffffffffffffffffffffffff1673ffffffffffffffffffffffffffffffffffffffff16815260200190815260200160002060008154809291906001019190505550505050505050565b61187e848484610f6a565b61188a848484846120fa565b151561189557600080fd5b50505050565b600760009054906101000a900473ffffffffffffffffffffffffffffffffffffffff1673ffffffffffffffffffffffffffffffffffffffff163373ffffffffffffffffffffffffffffffffffffffff161415156118f757600080fd5b60008090505b8151811015611aec576000828281518110151561191657fe5b90602001906020020151905060008173ffffffffffffffffffffffffffffffffffffffff166370a08231306040518263ffffffff167c0100000000000000000000000000000000000000000000000000000000028152600401808273ffffffffffffffffffffffffffffffffffffffff1673ffffffffffffffffffffffffffffffffffffffff16815260200191505060206040518083038186803b1580156119bd57600080fd5b505afa1580156119d1573d6000803e3d6000fd5b505050506040513d60208110156119e757600080fd5b8101908080519060200190929190505050905060008273ffffffffffffffffffffffffffffffffffffffff1663a9059cbb33846040518363ffffffff167c0100000000000000000000000000000000000000000000000000000000028152600401808373ffffffffffffffffffffffffffffffffffffffff1673ffffffffffffffffffffffffffffffffffffffff16815260200182815260200192505050602060405180830381600087803b158015611a9f57600080fd5b505af1158015611ab3573d6000803e3d6000fd5b505050506040513d6020811015611ac957600080fd5b8101908080519060200190929190505050905050505080806001019150506118fd565b5050565b6000600460008473ffffffffffffffffffffffffffffffffffffffff1673ffffffffffffffffffffffffffffffffffffffff16815260200190815260200160002060008373ffffffffffffffffffffffffffffffffffffffff1673ffffffffffffffffffffffffffffffffffffffff16815260200190815260200160002060009054906101000a900460ff16905092915050565b3373ffffffffffffffffffffffffffffffffffffffff16611ba483611085565b73ffffffffffffffffffffffffffffffffffffffff16141515611bc657600080fd5b80600b60008481526020019081526020016000206001019080519060200190611bf09291906124fc565b505050565b6000806001600084815260200190815260200160002060009054906101000a900473ffffffffffffffffffffffffffffffffffffffff169050600073ffffffffffffffffffffffffffffffffffffffff168173ffffffffffffffffffffffffffffffffffffffff161415915050919050565b600080611c7383611085565b90508073ffffffffffffffffffffffffffffffffffffffff168473ffffffffffffffffffffffffffffffffffffffff161480611ce257508373ffffffffffffffffffffffffffffffffffffffff16611cca84610cfe565b73ffffffffffffffffffffffffffffffffffffffff16145b80611cf35750611cf28185611af0565b5b91505092915050565b8273ffffffffffffffffffffffffffffffffffffffff16611d1c82611085565b73ffffffffffffffffffffffffffffffffffffffff16141515611d3e57600080fd5b600073ffffffffffffffffffffffffffffffffffffffff168273ffffffffffffffffffffffffffffffffffffffff1614151515611d7a57600080fd5b611d838161231d565b611dd66001600360008673ffffffffffffffffffffffffffffffffffffffff1673ffffffffffffffffffffffffffffffffffffffff168152602001908152602001600020546123dd90919063ffffffff16565b600360008573ffffffffffffffffffffffffffffffffffffffff1673ffffffffffffffffffffffffffffffffffffffff16815260200190815260200160002081905550611e6c6001600360008573ffffffffffffffffffffffffffffffffffffffff1673ffffffffffffffffffffffffffffffffffffffff168152602001908152602001600020546123ff90919063ffffffff16565b600360008473ffffffffffffffffffffffffffffffffffffffff1673ffffffffffffffffffffffffffffffffffffffff16815260200190815260200160002081905550816001600083815260200190815260200160002060006101000a81548173ffffffffffffffffffffffffffffffffffffffff021916908373ffffffffffffffffffffffffffffffffffffffff160217905550808273ffffffffffffffffffffffffffffffffffffffff168473ffffffffffffffffffffffffffffffffffffffff167fddf252ad1be2c89b69c2b068fc378daa952ba7f163c4a11628f55a4df523b3ef60405160405180910390a4505050565b600073ffffffffffffffffffffffffffffffffffffffff168273ffffffffffffffffffffffffffffffffffffffff1614151515611f9d57600080fd5b611fa681611bf5565b151515611fb257600080fd5b816001600083815260200190815260200160002060006101000a81548173ffffffffffffffffffffffffffffffffffffffff021916908373ffffffffffffffffffffffffffffffffffffffff1602179055506120576001600360008573ffffffffffffffffffffffffffffffffffffffff1673ffffffffffffffffffffffffffffffffffffffff168152602001908152602001600020546123ff90919063ffffffff16565b600360008473ffffffffffffffffffffffffffffffffffffffff1673ffffffffffffffffffffffffffffffffffffffff16815260200190815260200160002081905550808273ffffffffffffffffffffffffffffffffffffffff16600073ffffffffffffffffffffffffffffffffffffffff167fddf252ad1be2c89b69c2b068fc378daa952ba7f163c4a11628f55a4df523b3ef60405160405180910390a45050565b600061211b8473ffffffffffffffffffffffffffffffffffffffff16612420565b151561212a5760019050612315565b60008473ffffffffffffffffffffffffffffffffffffffff1663150b7a02338887876040518563ffffffff167c0100000000000000000000000000000000000000000000000000000000028152600401808573ffffffffffffffffffffffffffffffffffffffff1673ffffffffffffffffffffffffffffffffffffffff1681526020018473ffffffffffffffffffffffffffffffffffffffff1673ffffffffffffffffffffffffffffffffffffffff16815260200183815260200180602001828103825283818151815260200191508051906020019080838360005b83811015612221578082015181840152602081019050612206565b50505050905090810190601f16801561224e5780820380516001836020036101000a031916815260200191505b5095505050505050602060405180830381600087803b15801561227057600080fd5b505af1158015612284573d6000803e3d6000fd5b505050506040513d602081101561229a57600080fd5b8101908080519060200190929190505050905063150b7a027c0100000000000000000000000000000000000000000000000000000000027bffffffffffffffffffffffffffffffffffffffffffffffffffffffff1916817bffffffffffffffffffffffffffffffffffffffffffffffffffffffff1916149150505b949350505050565b600073ffffffffffffffffffffffffffffffffffffffff166002600083815260200190815260200160002060009054906101000a900473ffffffffffffffffffffffffffffffffffffffff1673ffffffffffffffffffffffffffffffffffffffff161415156123da5760006002600083815260200190815260200160002060006101000a81548173ffffffffffffffffffffffffffffffffffffffff021916908373ffffffffffffffffffffffffffffffffffffffff1602179055505b50565b60008282111515156123ee57600080fd5b600082840390508091505092915050565b600080828401905083811015151561241657600080fd5b8091505092915050565b600080823b905060008111915050919050565b608060405190810160405280600073ffffffffffffffffffffffffffffffffffffffff1681526020016060815260200160608152602001600067ffffffffffffffff1681525090565b828054600181600116156101000203166002900490600052602060002090601f016020900481019282601f106124bd57805160ff19168380011785556124eb565b828001600101855582156124eb579182015b828111156124ea5782518255916020019190600101906124cf565b5b5090506124f8919061257c565b5090565b828054600181600116156101000203166002900490600052602060002090601f016020900481019282601f1061253d57805160ff191683800117855561256b565b8280016001018555821561256b579182015b8281111561256a57825182559160200191906001019061254f565b5b509050612578919061257c565b5090565b61259e91905b8082111561259a576000816000905550600101612582565b5090565b9056fea165627a7a72305820916c4b14784707d6754f5521aaa22cd4dba09a55acff40644fe9979934b721850029",
  "source": "pragma solidity ^0.5.0;\n\nimport \"openzeppelin-solidity/contracts/token/ERC721/ERC721.sol\";\nimport \"openzeppelin-solidity/contracts/token/ERC20/ERC20.sol\";\n//TODO add iep 20 interface\n\ncontract Soulcapper is ERC721{\n\n  //track\n  //TODO getters and setters with owner only where appropriet\n   uint256 private transfer_percent_fee_over_ten;\n   uint256 private minting_fee_wei;\n   address private owner;\n   uint256 itemId = 1; //must be set to 1 as default.\n   address private ZRX_erc20_contrct;\n   uint16 private ZRX_discount_percent;\n   uint256 private max_souls_per_body;\n   //TODO set small trading fee\n\n   // ================================= Main Structs and Modifiers =========================== //\n  struct Soul{\n    address body;\n    string name;\n    string uri;\n    uint64 soul_type;\n  }\n\n   mapping(uint => Soul) public souls;\n   mapping(address => uint256) public captures_tracker;\n\n   event Capped(\n    address indexed _from,\n    string _name,\n    uint indexed _id,\n    uint _value\n  );\n\n  modifier onlyOwner() {\n      require(msg.sender == owner);\n      _;\n  }\n\n   // Initialize the stuff.\n   constructor() public {\n       owner = msg.sender;\n       transfer_percent_fee_over_ten = 0;\n       minting_fee_wei = 5e15;\n       max_souls_per_body = 3;\n       ZRX_discount_percent = 50;\n        ZRX_erc20_contrct = 0x61175b02C97c13185ad10de68498b9874a7ce4a1;\n   }\n\n   //Helper check to see if the user has erc20\n   function hasZRX(address user) public view returns(bool){\n     ERC20 instance = ERC20(ZRX_erc20_contrct);\n     if( instance.balanceOf(user) > 0){\n       return true;\n     }else{\n       return false;\n     }\n   }\n\n\n  //===================== functions =================================//\n\n  //mint\n  //Take a string for the url to the captured image.\n  function captureSoul(address _to, string memory _name, string memory _URI, uint64 _type) public payable{\n    //require the correct payment\n    uint fee = minting_fee_wei;\n    if(hasZRX(msg.sender)){\n      fee = fee - (fee * ZRX_discount_percent / 100); //update fee for ZRX users\n    }\n    require(msg.value >= fee);\n\n    //require that the user has not exceeded max souls per body, via captures tracker\n    require(captures_tracker[msg.sender] < max_souls_per_body);\n\n    //take url to cap image as string\n    _mint(_to, itemId); // Use ERC 721 interface\n    Soul memory instance = Soul(msg.sender, _name, _URI, _type);\n    souls[itemId] = instance;\n\n    //events and book keeping\n    emit Capped(msg.sender, _name, itemId, msg.value);\n    itemId++; //increment id\n    captures_tracker[msg.sender]++;// increment total number of souls capped from this address\n  }\n\n  //allow the owner of a token to set its name\n  function setName(uint _id, string memory _name) public{\n    require(ownerOf(_id) == msg.sender);\n    souls[_id].name = _name;\n  }\n\n  //Allow users\n  //canOperate modifier to allow third part services to trade on user behalds. canOperate(_itemId)\n  //  maybe ZRX can integrate with that.\n  function tradeSoul(uint256 _itemId, address _to) public payable{\n    safeTransferFrom(msg.sender, _to, _itemId, \"\");// Use ERC 721 interface\n  }\n\n  // cashout function, for ether. Owner can pay any address\n  function cashout(address payable _payto) public onlyOwner {\n    _payto.transfer(address(this).balance);\n  }\n\n  //allow owner to cashout any erc20 token sent to this address\n  function withdraw(address[] memory erc20_contracts) public onlyOwner {\n      for (uint i=0; i<erc20_contracts.length; i++) {\n\n            ERC20 instance = ERC20(erc20_contracts[i]);\n\n            uint256 _val = instance.balanceOf(address(this));\n\n            bool succ = instance.transfer(msg.sender, _val);\n        }\n  }\n\n  function setEverything(uint256 _transfer_percent_fee, uint256 _minting_fee_wei, address _ZRX_erc20_contrct, uint16 _ZRX_discount_percent, uint256 _max_souls_per_body) public onlyOwner {\n\n    //set everything\n    transfer_percent_fee_over_ten = _transfer_percent_fee;\n    minting_fee_wei = _minting_fee_wei;\n    ZRX_erc20_contrct = _ZRX_erc20_contrct;\n    ZRX_discount_percent = _ZRX_discount_percent;\n    max_souls_per_body = _max_souls_per_body;\n  }\n\n}\n",
  "sourcePath": "/home/jsch/Desktop/soulcap/contracts/Soulcapper.sol",
  "compiler": {
    "name": "solc",
    "version": "0.5.0+commit.1d4f565a.Emscripten.clang"
  },
  "schemaVersion": "3.0.1",
  "updatedAt": "2019-01-26T19:04:06.654Z",
  "devdoc": {
    "methods": {
      "approve(address,uint256)": {
        "details": "Approves another address to transfer the given token ID The zero address indicates there is no approved address. There can only be one approved address per token at a given time. Can only be called by the token owner or an approved operator.",
        "params": {
          "to": "address to be approved for the given token ID",
          "tokenId": "uint256 ID of the token to be approved"
        }
      },
      "balanceOf(address)": {
        "details": "Gets the balance of the specified address",
        "params": {
          "owner": "address to query the balance of"
        },
        "return": "uint256 representing the amount owned by the passed address"
      },
      "getApproved(uint256)": {
        "details": "Gets the approved address for a token ID, or zero if no address set Reverts if the token ID does not exist.",
        "params": {
          "tokenId": "uint256 ID of the token to query the approval of"
        },
        "return": "address currently approved for the given token ID"
      },
      "isApprovedForAll(address,address)": {
        "details": "Tells whether an operator is approved by a given owner",
        "params": {
          "operator": "operator address which you want to query the approval of",
          "owner": "owner address which you want to query the approval of"
        },
        "return": "bool whether the given operator is approved by the given owner"
      },
      "ownerOf(uint256)": {
        "details": "Gets the owner of the specified token ID",
        "params": {
          "tokenId": "uint256 ID of the token to query the owner of"
        },
        "return": "owner address currently marked as the owner of the given token ID"
      },
      "safeTransferFrom(address,address,uint256)": {
        "details": "Safely transfers the ownership of a given token ID to another address If the target address is a contract, it must implement `onERC721Received`, which is called upon a safe transfer, and return the magic value `bytes4(keccak256(\"onERC721Received(address,address,uint256,bytes)\"))`; otherwise, the transfer is reverted.     * Requires the msg sender to be the owner, approved, or operator",
        "params": {
          "from": "current owner of the token",
          "to": "address to receive the ownership of the given token ID",
          "tokenId": "uint256 ID of the token to be transferred"
        }
      },
      "safeTransferFrom(address,address,uint256,bytes)": {
        "details": "Safely transfers the ownership of a given token ID to another address If the target address is a contract, it must implement `onERC721Received`, which is called upon a safe transfer, and return the magic value `bytes4(keccak256(\"onERC721Received(address,address,uint256,bytes)\"))`; otherwise, the transfer is reverted. Requires the msg sender to be the owner, approved, or operator",
        "params": {
          "_data": "bytes data to send along with a safe transfer check",
          "from": "current owner of the token",
          "to": "address to receive the ownership of the given token ID",
          "tokenId": "uint256 ID of the token to be transferred"
        }
      },
      "setApprovalForAll(address,bool)": {
        "details": "Sets or unsets the approval of a given operator An operator is allowed to transfer all tokens of the sender on their behalf",
        "params": {
          "approved": "representing the status of the approval to be set",
          "to": "operator address to set the approval"
        }
      },
      "supportsInterface(bytes4)": {
        "details": "implement supportsInterface(bytes4) using a lookup table"
      },
      "transferFrom(address,address,uint256)": {
        "details": "Transfers the ownership of a given token ID to another address Usage of this method is discouraged, use `safeTransferFrom` whenever possible Requires the msg sender to be the owner, approved, or operator",
        "params": {
          "from": "current owner of the token",
          "to": "address to receive the ownership of the given token ID",
          "tokenId": "uint256 ID of the token to be transferred"
        }
      }
    }
  },
  "userdoc": {
    "methods": {}
  }
}